:020000040000FA
:0400000007EF00F016
:1000080057825DED04F08BEF04F0376E080E376011
:1000180010EF00F012EF00F045EF00F03450D8A4D4
:1000280018EF00F01AEF00F02CEF00F037C035F0B1
:10003800010E366E352A23EF00F0D8903636352E6D
:1000480021EF00F03650FF0A8A14816E37EF01F075
:100058003404D8A432EF00F034EF00F037EF01F0A9
:1000680037C035F0010E366E352A3DEF00F0D890D6
:100078003636352E3BEF00F036508A10816E37EF5A
:1000880001F0100E37604BEF00F04DEF00F082EFFB
:1000980000F0080E375E3450D8A455EF00F057EF43
:1000A80000F069EF00F037C035F0010E366E352AE2
:1000B80060EF00F0D8903636352E5EEF00F03650FF
:1000C800FF0A8C14836E37EF01F03404D8A46FEF65
:1000D80000F071EF00F037EF01F037C035F0010E96
:1000E800366E352A7AEF00F0D8903636352E78EF0E
:1000F80000F036508C10836E37EF01F0180E376021
:1001080088EF00F08AEF00F0BFEF00F0100E375EC6
:100118003450D8A492EF00F094EF00F0A6EF00F06E
:1001280037C035F0010E366E352A9DEF00F0D890B5
:100138003636352E9BEF00F03650FF0A8B14826E50
:1001480037EF01F03404D8A4ACEF00F0AEEF00F0C4
:1001580037EF01F037C035F0010E366E352AB7EFAC
:1001680000F0D8903636352EB5EF00F036508B10AB
:10017800826E37EF01F01E0E3760C5EF00F0C7EF53
:1001880000F0FCEF00F0180E375E3450D8A4CFEF23
:1001980000F0D1EF00F0E3EF00F037C035F0010ECA
:1001A800366E352ADAEF00F0D8903636352ED8EF8D
:1001B80000F03650FF0A8914806E37EF01F03404DE
:1001C800D8A4E9EF00F0EBEF00F037EF01F037C00B
:1001D80035F0010E366E352AF4EF00F0D890363639
:1001E800352EF2EF00F036508910806E37EF01F0AF
:1001F800210E376002EF01F004EF01F037EF01F054
:100208001E0E375E3450D8A40CEF01F00EEF01F04B
:1002180020EF01F037C035F0010E366E352A17EFA2
:1002280001F0D8903636352E15EF01F03650FF0A1A
:100238008D14846E37EF01F03404D8A426EF01F052
:1002480028EF01F037EF01F037C035F0010E366EB8
:10025800352A31EF01F0D8903636352E2FEF01F0E0
:1002680036508D10846E1200376E080E37603FEFDF
:1002780001F041EF01F072EF01F03450D8A447EFDC
:1002880001F049EF01F05AEF01F037C035F0010EE7
:10029800366E352A52EF01F0D8903636352E50EFAB
:1002A80001F03650FF0A93165CEF02F03404D8A42C
:1002B80060EF01F062EF01F05CEF02F037C035F05B
:1002C800010E366E352A6BEF01F0D8903636352E92
:1002D80069EF01F0365093125CEF02F0100E3760B0
:1002E80078EF01F07AEF01F0ADEF01F0080E375E1C
:1002F8003450D8A482EF01F084EF01F095EF01F0BB
:1003080037C035F0010E366E352A8DEF01F0D890E2
:100318003636352E8BEF01F03650FF0A95165CEF16
:1003280002F03404D8A49BEF01F09DEF01F05CEFDC
:1003380002F037C035F0010E366E352AA6EF01F00F
:10034800D8903636352EA4EF01F0365095125CEF72
:1003580002F0180E3760B3EF01F0B5EF01F0E8EFE7
:1003680001F0100E375E3450D8A4BDEF01F0BFEF96
:1003780001F0D0EF01F037C035F0010E366E352AA6
:10038800C8EF01F0D8903636352EC6EF01F036505A
:10039800FF0A94165CEF02F03404D8A4D6EF01F0FB
:1003A800D8EF01F05CEF02F037C035F0010E366E81
:1003B800352AE1EF01F0D8903636352EDFEF01F01F
:1003C800365094125CEF02F01E0E3760EEEF01F02B
:1003D800F0EF01F023EF02F0180E375E3450D8A486
:1003E800F8EF01F0FAEF01F00BEF02F037C035F04B
:1003F800010E366E352A03EF02F0D8903636352EC8
:1004080001EF02F03650FF0A92165CEF02F0340456
:10041800D8A411EF02F013EF02F05CEF02F037C03E
:1004280035F0010E366E352A1CEF02F0D8903636BC
:10043800352E1AEF02F0365092125CEF02F0210EC0
:10044800376029EF02F02BEF02F05CEF02F01E0E8E
:10045800375E3450D8A433EF02F035EF02F046EFA0
:1004680002F037C035F0010E366E352A3EEF02F045
:10047800D8903636352E3CEF02F03650FF0A9616E5
:100488005CEF02F03404D8A44CEF02F04EEF02F017
:100498005CEF02F037C035F0010E366E352A57EFA3
:1004A80002F0D8903636352E55EF02F036509612B7
:1004B8001200B7EF02F040C0F6FF41C0F7FFF86A3C
:1004C800050EF76403D00800F55005D0F6CFE9FF14
:1004D800F7CFEAFFEF500D0AD8A475EF02F077EFD7
:1004E80002F080EF02F0010E3C6E200ED5EC03F016
:1004F800404A412AB7EF02F040C0F6FF41C0F7FF7B
:10050800F86A050EF76403D00800F55005D0F6CF59
:10051800E9FFF7CFEAFFEF500A0AD8A496EF02F0F6
:1005280098EF02F0A1EF02F0010E3C6E200ED5EC20
:1005380003F0404A412A5DEF02F0010E3C6E40C0D4
:10054800F6FF41C0F7FFF86A050EF76403D008000C
:10055800F55005D0F6CFE9FFF7CFEAFFEF50D5EC1D
:1005680003F09DEF02F040C0F6FF41C0F7FFF86AC4
:10057800050EF76403D00800F55005D0F6CFE9FF63
:10058800F7CFEAFFEF500009D8A4CDEF02F0CFEF84
:1005980002F05FEF02F01200000E416E030E406E93
:1005A800000E436E020E426E000E456E010E446E42
:1005B800000E476E000E466E000E496E050E486E20
:1005C800000E4B6E040E4A6E85EC03F00AEC05F043
:1005D800000E426ECB0E436E7F0E446E000EFDEC95
:1005E80004F0010E426E280E436E7F0E446E000E1C
:1005F800FDEC04F0000E346E0E0E38EC01F0000E27
:10060800346E0D0E38EC01F0000E346E0E0E09EC4F
:1006180000F0000E346E0D0E09EC00F0030E356E7E
:10062800E80E346ED2EC04F0010E346E0E0E09ECB6
:1006380000F0010E346E0D0E09EC00F0030E356E5D
:10064800E80E346ED2EC04F008EF03F007EF00F088
:10065800AECF31F051285210D8A435EF03F037EF60
:1006680003F040EF03F053505410D8B43EEF03F0BA
:1006780040EF03F052EF03F0010E51242F6E000EED
:100688005220306E53502F1807E154503018D8A418
:1006980050EF03F052EF03F054EF03F0534A542A9B
:1006A80054045310D8B45BEF03F05DEF03F067EF29
:1006B80003F0532806E15428D8A465EF03F067EF48
:1006C80003F06BEF03F0000E546E000E536E5128CA
:1006D8005210D8A472EF03F074EF03F07AEF03F02E
:1006E800000E526E000E516E7CEF03F0514A522AF2
:1006F800000E5124D96E010E5220DA6E31C0DFFF90
:10070800120040C026F042C027F044C028F046C07E
:1007180029F048C056F04AC055F0000E4C6E000E45
:10072800346E260E4C24D96EDA6A000EDA22DF50B7
:1007380038EC01F04C2A030E4C64A5EF03F0A7EF48
:1007480003F093EF03F0000E346E565038EC01F0CE
:10075800000E346E555038EC01F0000E3C6E030E5E
:10076800D5EC03F0000E3C6E020ED5EC03F0000E43
:100778003C6E280ED5EC03F0000E3C6E0C0ED5EC4A
:1007880003F0000E3C6E010ED5EC03F0000E3C6E3B
:10079800060ED5EC03F0000E3C6E800ED5EC03F08F
:1007A80012003F6E000E3E6E3F380F0B3D6E3F50FD
:1007B8000F0B3E6E000E356E030E346ED2EC04F055
:1007C8003C04D8A4EAEF03F0ECEF03F0F3EF03F0F6
:1007D800010E346E565009EC00F0F8EF03F0000EED
:1007E800346E565009EC00F03D5025EC04F0010E33
:1007F800346E555009EC00F0000E356E030E346E61
:10080800D2EC04F0000E346E555009EC00F0000EE6
:10081800356E030E346ED2EC04F03E5025EC04F035
:10082800010E346E555009EC00F0000E356E030EC3
:10083800346ED2EC04F0000E346E555009EC00F022
:1008480012003A6E000E3B6E3BC038F03AC039F0E9
:10085800382A31EF04F0D8903932382E2FEF04F0CF
:1008680039A039EF04F03BEF04F048EF04F0010E33
:10087800346E260E3B24D96EDA6A000EDA22DF5077
:1008880009EC00F053EF04F0000E346E260E3B2402
:10089800D96EDA6A000EDA22DF5009EC00F03B2A42
:1008A800030E3B645AEF04F05CEF04F028EF04F009
:1008B80012000600D9CF32F0DACF33F09DAA67EFE5
:1008C80004F069EF04F074EF04F09EAA6EEF04F0F0
:1008D80070EF04F074EF04F02CEC03F085EF04F0F3
:1008E800F2AA79EF04F07BEF04F085EF04F0F2A4AC
:1008F80080EF04F082EF04F085EF04F0EEEC04F0F2
:10090800F29433C0DAFF32C0D9FF579211002A0E91
:10091800F66E0A0EF76E000EF86E00EE4DF010EE51
:1009280008F00900F5CFEEFFE550E150FAE101EEDD
:1009380000F011EE00F0EE6AE550E150FCE1E25003
:10094800FAE100EE01F02E0EEE6AE806FDE157909E
:100958005792000EF86E0001D0EF02F0416E405041
:10096800D8A4B9EF04F0BBEF04F0C3EF04F0000E15
:100978003C6E4150800FD5EC03F0D1EF04F04004F9
:10098800D8A4C9EF04F0CBEF04F0D1EF04F0000EC7
:100998003C6E4150C00FD5EC03F01200000E386ECB
:1009A800000E376EE2EF04F0070E366E7D0EE82E6D
:1009B800FED7362EFCD700F0374A382A3450375C39
:1009C80035503858D8A0EBEF04F0EDEF04F0D8EF2D
:1009D80004F012002E2A4C0E2E18D8A4F6EF04F0BC
:1009E800F8EF04F0FCEF04F0000E2E6E2A4A2B2AD2
:1009F8001200456E42C040F04550B2EC04F043C0CE
:100A080040F044C041F05DEC02F01200000E3C6E74
:100A1800010ED5EC03F0000E3C6E800ED5EC03F011
:0A0A280012006E696C00FFFFFFFF73
:107DE80000416358203D2564207C20416359203D93
:107DF8002564207C2041635A203D2564207C205442
:107E0800656D70203D256420002D2D2D2D2D2D2DE7
:107E18002D2D2D2D2D2D2D2D2D2D2D2D2D0D0A00FA
:107E28002D2D2D2D2D2D2D2D2D2D2D2D2D2D2D2D7A
:107E38002D2D2D2D2D2D00504943313846205365C9
:107E48007269616C20546573740D0A004578746515
:107E5800726E616C2053504920546573740D0A008A
:107E680052656164696E6720746865206461746135
:107E78000D0A0057726974696E672074686520641A
:107E88006174610D0A00454550524F4D2054657389
:107E980074696E670D0A004368616E6E656C203008
:107EA800203A25352E3064004368616E6E656C207B
:107EB80031203A25352E30640054656D7065726145
:107EC80074757265203A25640057616974696E6734
:107ED80020466F72204D7367004D5055363035304F
:107EE80020546573740D0A004932432045455052A9
:107EF8004F4D200D0A00577269746520446F6E65F6
:107F0800200D0A004144432054657374202E2E2E00
:107F18002E0050494331384620454550524F4D00B8
:107F2800504943204C696272617269657300446903
:107F38007374616E6365203A25640048756D6964E1
:107F4800697479203A25640048656C6C6F20504943
:107F5800430D0A0049324320525443200D0A004E73
:107F6800657720534D532021210041444320303A66
:107F78002025640041542B434D47463D3100544968
:107F8800434B3A2025640047534D20496E697400DD
:107F980041542B434D47523D0041542B434D4753C9
:107FA8003D0041542B4353504E3F005265616420BD
:107FB8000D0A0048432D53523034004932432052B1
:107FC800544300204D6173746572004461746120EC
:107FD8003A0054696D65203A0044617465203A009E
:107FE80053494D2049730041544530006869004F9A
:087FF8004B004154000D000094
:020000040020DA
:08000000FFFFFFFFFFFFFFFF00
:020000040030CA
:0E000000FF021B1EFF8181FF0FC00FE00F40AB
:00000001FF
