:040000000BEF00F012
:100008004E82FACF34F0FBCF35F0E4ED01F061EF2A
:1000180002F0456E080E456023D04250D8A40FD098
:1000280045C043F0010E446E432A02D0D8904436AE
:10003800432EFCD74450FF0A8A14816E12004204F2
:10004800D8A4120045C043F0010E446E432A02D0E2
:10005800D8904436432EFCD744508A10816E120043
:10006800100E456025D0080E455E4250D8A40FD02A
:1000780045C043F0010E446E432A02D0D89044365E
:10008800432EFCD74450FF0A8C14836E120042049E
:10009800D8A4120045C043F0010E446E432A02D092
:1000A800D8904436432EFCD744508C10836E1200EF
:1000B800180E456025D0100E455E4250D8A40FD0CA
:1000C80045C043F0010E446E432A02D0D89044360E
:1000D800432EFCD74450FF0A8B14826E1200420450
:1000E800D8A4120045C043F0010E446E432A02D042
:1000F800D8904436432EFCD744508B10826E1200A1
:100108001E0E456025D0180E455E4250D8A40FD06B
:1001180045C043F0010E446E432A02D0D8904436BD
:10012800432EFCD74450FF0A8914806E1200420403
:10013800D8A4120045C043F0010E446E432A02D0F1
:10014800D8904436432EFCD744508910806E120054
:10015800210E456012001E0E455E4250D8A40FD0F5
:1001680045C043F0010E446E432A02D0D89044366D
:10017800432EFCD74450FF0A8D14846E12004204AB
:10018800D8A4120045C043F0010E446E432A02D0A1
:10019800D8904436432EFCD744508D10846E1200FC
:1001A800456E080E456021D04250D8A40ED045C0F7
:1001B80043F0010E446E432A02D0D8904436432EB1
:1001C800FCD74450FF0A931612004204D8A4120028
:1001D80045C043F0010E446E432A02D0D8904436FD
:1001E800432EFCD7445093121200100E456023D0C2
:1001F800080E455E4250D8A40ED045C043F0010E0B
:10020800446E432A02D0D8904436432EFCD744503B
:10021800FF0A951612004204D8A4120045C043F004
:10022800010E446E432A02D0D8904436432EFCD7A0
:10023800445095121200180E456023D0100E455EEA
:100248004250D8A40ED045C043F0010E446E432A54
:1002580002D0D8904436432EFCD74450FF0A941657
:1002680012004204D8A4120045C043F0010E446EA7
:10027800432A02D0D8904436432EFCD744509412D7
:1002880012001E0E456023D0180E455E4250D8A4B9
:100298000ED045C043F0010E446E432A02D0D890D8
:1002A8004436432EFCD74450FF0A921612004204EB
:1002B800D8A4120045C043F0010E446E432A02D070
:1002C800D8904436432EFCD7445092121200210E87
:1002D800456012001E0E455E4250D8A40ED045C09F
:1002E80043F0010E446E432A02D0D8904436432E80
:1002F800FCD74450FF0A961612004204D8A41200F4
:1003080045C043F0010E446E432A02D0D8904436CB
:10031800432EFCD7445096121200446E080E4460D7
:100328000DD044C042F081CF43F0422A02D0D89089
:100338004332422EFCD74350010B1200100E44608A
:100348000DD0080E445E44C042F083CF43F0422AE9
:1003580002D0D8904332422EFCD7EDD7180E446015
:100368000DD0100E445E44C042F082CF43F0422AC2
:1003780002D0D8904332422EFCD7DDD71E0E4460FF
:100388000DD0180E445E44C042F080CF43F0422A9C
:1003980002D0D8904332422EFCD7CDD7210E4460EC
:1003A8000DD01E0E445E44C042F084CF43F0422A72
:1003B80002D0D8904332422EFCD7BDD7000E12008F
:1003C8000600E9CF36F0EACF37F0E1CF38F0E2CFD8
:1003D80039F0D9CF3AF0DACF3BF0F3CF3CF0F4CF95
:1003E8003DF0F6CF3EF0F7CF3FF0F8CF40F0F5CF35
:1003F80041F09DBA9EAA03D027EC02F006D0F2BACB
:10040800F2A403D0A4EC02F0F29441C0F5FF40C07E
:10041800F8FF3FC0F7FF3EC0F6FF3DC0F4FF3CC009
:10042800F3FF3BC0DAFF3AC0D9FF39C0E2FF38C05A
:10043800E1FF37C0EAFF36C0E9FF35C0FBFF34C033
:10044800FAFF4E921100AECF33F04C284D10D8A4CD
:1004580004D04A504B10D8B40DD0010E4C24316E44
:10046800000E4D20326E4A50311806E14B503218BA
:10047800D8A402D04A4A4B2A4B044A10D8B405D013
:100488004A2807E14B28D8A404D0000E4B6E000E72
:100498004A6E4C284D10D8A405D0000E4D6E000EA3
:1004A8004C6E02D04C4A4D2A000E4C24D96E010ED7
:1004B8004D20DA6E33C0DFFF120001EE00F011EEBE
:1004C80000F0EE6AE550E150FCE1E250FAE100EE9E
:1004D80001F0300EEE6AE806FDE15C0EF66E050EE0
:1004E800F76E000EF86E00EE46F010EE08F0090008
:1004F800F5CFEEFFE550E150FAE14E904E92000E36
:10050800F86E0001B2EF02F0000E426E000ED4EC5D
:1005180000F0010E426E010ED4EC00F0010E91ECD9
:1005280001F00009D8B406D0000E426E000E0DECA2
:1005380000F0F4D7010E426E000E0DEC00F0EED77D
:10054800302A4C0E3018D8A41200000E306E2A4AF9
:100558002B2A12006E696C00FFFFFFFF88EC02F087
:02056800FFD7BB
:107DDE000001000A006400E8031027416358203DAB
:107DEE002564207C20416359203D2564207C204160
:107DFE00635A203D2564207C2054656D70203D25FE
:107E0E006420002D2D2D2D2D2D2D2D2D2D2D2D2D97
:107E1E002D2D2D2D2D2D2D0D0A002D2D2D2D2D2DF4
:107E2E002D2D2D2D2D2D2D2D2D2D2D2D2D2D2D2D74
:107E3E00005049433138462053657269616C2054B5
:107E4E006573740D0A0045787465726E616C20530B
:107E5E00504920546573740D0A0052656164696E51
:107E6E00672074686520646174610D0A0057726939
:107E7E0074696E672074686520646174610D0A0010
:107E8E00454550524F4D2054657374696E670D0A07
:107E9E00004368616E6E656C2030203A25352E30B9
:107EAE0064004368616E6E656C2031203A25352E74
:107EBE0030640054656D7065726174757265203A38
:107ECE0025640057616974696E6720466F72204D94
:107EDE007367004D50553630353020546573740D30
:107EEE000A0049324320454550524F4D200D0A009D
:107EFE00577269746520446F6E65200D0A00414407
:107F0E00432054657374202E2E2E2E00504943317B
:107F1E00384620454550524F4D00504943204C693C
:107F2E00627261726965730044697374616E636530
:107F3E00203A25640048756D6964697479203A2584
:107F4E00640048656C6C6F205049430D0A004E6505
:107F5E007720534D53202121004932432052544360
:107F6E00200D0A0041542B434D47463D31004144FC
:107F7E004320303A2025640041542B434D47523D57
:107F8E000041542B434D47533D0041542B43535016
:107F9E004E3F005449434B3A2025640047534D2031
:107FAE00496E69740052656164200D0A0048432DC4
:107FBE0053523034004932432052544300204D6115
:107FCE00737465720044617461203A0054696D6582
:107FDE00203A0044617465203A0053494D2049739C
:107FEE000041544530004F4B004154006869000D6C
:027FFE00000081
:020000040020DA
:08000000FFFFFFFFFFFFFFFF00
:020000040030CA
:0E000000FF021B1EFF8181FF0FC00FE00F40AB
:00000001FF
